{
  "_format": "hh-sol-artifact-1",
  "contractName": "TestMessageCall",
  "sourceName": "contracts/TestMessageCall.sol",
  "abi": [
    {
      "inputs": [],
      "stateMutability": "nonpayable",
      "type": "constructor"
    },
    {
      "inputs": [
        {
          "internalType": "uint256",
          "name": "iterations",
          "type": "uint256"
        }
      ],
      "name": "test",
      "outputs": [
        {
          "internalType": "uint256",
          "name": "",
          "type": "uint256"
        }
      ],
      "stateMutability": "nonpayable",
      "type": "function"
    }
  ],
  "bytecode": "0x608060405234801561001057600080fd5b5060405161001d9061005f565b604051809103906000f080158015610039573d6000803e3d6000fd5b50600080546001600160a01b0319166001600160a01b039290921691909117905561006b565b60d7806101a083390190565b6101268061007a6000396000f3fe6080604052348015600f57600080fd5b506004361060285760003560e01c806329e99f0714602d575b600080fd5b604760048036036020811015604157600080fd5b50356059565b60408051918252519081900360200190f35b600080805b8381101560e9576000809054906101000a90046001600160a01b03166001600160a01b031663f8a8fd6d6040518163ffffffff1660e01b8152600401602060405180830381600087803b15801560b357600080fd5b505af115801560c6573d6000803e3d6000fd5b505050506040513d602081101560db57600080fd5b50519190910190600101605e565b509291505056fea2646970667358221220a8379e44e32cc90e3ce41e0674aaf4551a8ef3c3e87a45537440c8db4b25c21f64736f6c634300060600336080604052348015600f57600080fd5b5060b98061001e6000396000f3fe6080604052348015600f57600080fd5b506004361060285760003560e01c8063f8a8fd6d14602d575b600080fd5b60336045565b60408051918252519081900360200190f35b60408051602a815290516000917f1440c4dd67b4344ea1905ec0318995133b550f168b4ee959a0da6b503d7d2414919081900360200190a150602a9056fea2646970667358221220fed9b04533131cf3a90d98909f0d1918e91a73387aba38c3d26447075031dc5164736f6c63430006060033",
  "linkReferences": {},
  "deployedLinkReferences": {}
}