{
  "_format": "hh-sol-artifact-1",
  "contractName": "Greeter",
  "sourceName": "contracts/Greeter.sol",
  "abi": [
    {
      "inputs": [],
      "stateMutability": "nonpayable",
      "type": "constructor"
    },
    {
      "inputs": [],
      "name": "greet",
      "outputs": [
        {
          "internalType": "string",
          "name": "",
          "type": "string"
        }
      ],
      "stateMutability": "view",
      "type": "function"
    },
    {
      "inputs": [],
      "name": "greeting",
      "outputs": [
        {
          "internalType": "string",
          "name": "",
          "type": "string"
        }
      ],
      "stateMutability": "view",
      "type": "function"
    },
    {
      "inputs": [
        {
          "internalType": "string",
          "name": "_greeting",
          "type": "string"
        }
      ],
      "name": "setGreeting",
      "outputs": [],
      "stateMutability": "nonpayable",
      "type": "function"
    }
  ],
  "bytecode": "0x608060405234801561001057600080fd5b506040805180820190915260058082526448656c6c6f60d81b602090920191825261003d91600091610043565b50610117565b82805461004f906100dc565b90600052602060002090601f01602090048101928261007157600085556100b7565b82601f1061008a57805160ff19168380011785556100b7565b828001600101855582156100b7579182015b828111156100b757825182559160200191906001019061009c565b506100c39291506100c7565b5090565b5b808211156100c357600081556001016100c8565b600181811c908216806100f057607f821691505b6020821081141561011157634e487b7160e01b600052602260045260246000fd5b50919050565b6103de806101266000396000f3fe608060405234801561001057600080fd5b50600436106100415760003560e01c8063a413686214610046578063cfae32171461005b578063ef690cc014610079575b600080fd5b610059610054366004610267565b610081565b005b610063610098565b6040516100709190610318565b60405180910390f35b61006361012a565b80516100949060009060208401906101b8565b5050565b6060600080546100a79061036d565b80601f01602080910402602001604051908101604052809291908181526020018280546100d39061036d565b80156101205780601f106100f557610100808354040283529160200191610120565b820191906000526020600020905b81548152906001019060200180831161010357829003601f168201915b5050505050905090565b600080546101379061036d565b80601f01602080910402602001604051908101604052809291908181526020018280546101639061036d565b80156101b05780601f10610185576101008083540402835291602001916101b0565b820191906000526020600020905b81548152906001019060200180831161019357829003601f168201915b505050505081565b8280546101c49061036d565b90600052602060002090601f0160209004810192826101e6576000855561022c565b82601f106101ff57805160ff191683800117855561022c565b8280016001018555821561022c579182015b8281111561022c578251825591602001919060010190610211565b5061023892915061023c565b5090565b5b80821115610238576000815560010161023d565b634e487b7160e01b600052604160045260246000fd5b60006020828403121561027957600080fd5b813567ffffffffffffffff8082111561029157600080fd5b818401915084601f8301126102a557600080fd5b8135818111156102b7576102b7610251565b604051601f8201601f19908116603f011681019083821181831017156102df576102df610251565b816040528281528760208487010111156102f857600080fd5b826020860160208301376000928101602001929092525095945050505050565b600060208083528351808285015260005b8181101561034557858101830151858201604001528201610329565b81811115610357576000604083870101525b50601f01601f1916929092016040019392505050565b600181811c9082168061038157607f821691505b602082108114156103a257634e487b7160e01b600052602260045260246000fd5b5091905056fea2646970667358221220eeed8aec8c5a10ec74e1d061e82bf8da5ac6a933929d72dee3c682cc1baf4e4c64736f6c634300080a0033",
  "linkReferences": {},
  "deployedLinkReferences": {}
}