{
  "_format": "hh-sol-artifact-1",
  "contractName": "CosmosERC20",
  "sourceName": "contracts/CosmosToken.sol",
  "abi": [
    {
      "inputs": [
        {
          "internalType": "address",
          "name": "_gravityAddress",
          "type": "address"
        },
        {
          "internalType": "string",
          "name": "_name",
          "type": "string"
        },
        {
          "internalType": "string",
          "name": "_symbol",
          "type": "string"
        },
        {
          "internalType": "uint8",
          "name": "_decimals",
          "type": "uint8"
        }
      ],
      "stateMutability": "nonpayable",
      "type": "constructor"
    },
    {
      "anonymous": false,
      "inputs": [
        {
          "indexed": true,
          "internalType": "address",
          "name": "owner",
          "type": "address"
        },
        {
          "indexed": true,
          "internalType": "address",
          "name": "spender",
          "type": "address"
        },
        {
          "indexed": false,
          "internalType": "uint256",
          "name": "value",
          "type": "uint256"
        }
      ],
      "name": "Approval",
      "type": "event"
    },
    {
      "anonymous": false,
      "inputs": [
        {
          "indexed": true,
          "internalType": "address",
          "name": "from",
          "type": "address"
        },
        {
          "indexed": true,
          "internalType": "address",
          "name": "to",
          "type": "address"
        },
        {
          "indexed": false,
          "internalType": "uint256",
          "name": "value",
          "type": "uint256"
        }
      ],
      "name": "Transfer",
      "type": "event"
    },
    {
      "inputs": [
        {
          "internalType": "address",
          "name": "owner",
          "type": "address"
        },
        {
          "internalType": "address",
          "name": "spender",
          "type": "address"
        }
      ],
      "name": "allowance",
      "outputs": [
        {
          "internalType": "uint256",
          "name": "",
          "type": "uint256"
        }
      ],
      "stateMutability": "view",
      "type": "function"
    },
    {
      "inputs": [
        {
          "internalType": "address",
          "name": "spender",
          "type": "address"
        },
        {
          "internalType": "uint256",
          "name": "amount",
          "type": "uint256"
        }
      ],
      "name": "approve",
      "outputs": [
        {
          "internalType": "bool",
          "name": "",
          "type": "bool"
        }
      ],
      "stateMutability": "nonpayable",
      "type": "function"
    },
    {
      "inputs": [
        {
          "internalType": "address",
          "name": "account",
          "type": "address"
        }
      ],
      "name": "balanceOf",
      "outputs": [
        {
          "internalType": "uint256",
          "name": "",
          "type": "uint256"
        }
      ],
      "stateMutability": "view",
      "type": "function"
    },
    {
      "inputs": [],
      "name": "decimals",
      "outputs": [
        {
          "internalType": "uint8",
          "name": "",
          "type": "uint8"
        }
      ],
      "stateMutability": "view",
      "type": "function"
    },
    {
      "inputs": [
        {
          "internalType": "address",
          "name": "spender",
          "type": "address"
        },
        {
          "internalType": "uint256",
          "name": "subtractedValue",
          "type": "uint256"
        }
      ],
      "name": "decreaseAllowance",
      "outputs": [
        {
          "internalType": "bool",
          "name": "",
          "type": "bool"
        }
      ],
      "stateMutability": "nonpayable",
      "type": "function"
    },
    {
      "inputs": [],
      "name": "gravity",
      "outputs": [
        {
          "internalType": "address",
          "name": "",
          "type": "address"
        }
      ],
      "stateMutability": "view",
      "type": "function"
    },
    {
      "inputs": [
        {
          "internalType": "address",
          "name": "spender",
          "type": "address"
        },
        {
          "internalType": "uint256",
          "name": "addedValue",
          "type": "uint256"
        }
      ],
      "name": "increaseAllowance",
      "outputs": [
        {
          "internalType": "bool",
          "name": "",
          "type": "bool"
        }
      ],
      "stateMutability": "nonpayable",
      "type": "function"
    },
    {
      "inputs": [],
      "name": "name",
      "outputs": [
        {
          "internalType": "string",
          "name": "",
          "type": "string"
        }
      ],
      "stateMutability": "view",
      "type": "function"
    },
    {
      "inputs": [
        {
          "internalType": "address",
          "name": "_gravityAddress",
          "type": "address"
        }
      ],
      "name": "setGravityContract",
      "outputs": [],
      "stateMutability": "nonpayable",
      "type": "function"
    },
    {
      "inputs": [],
      "name": "symbol",
      "outputs": [
        {
          "internalType": "string",
          "name": "",
          "type": "string"
        }
      ],
      "stateMutability": "view",
      "type": "function"
    },
    {
      "inputs": [],
      "name": "totalSupply",
      "outputs": [
        {
          "internalType": "uint256",
          "name": "",
          "type": "uint256"
        }
      ],
      "stateMutability": "view",
      "type": "function"
    },
    {
      "inputs": [
        {
          "internalType": "address",
          "name": "recipient",
          "type": "address"
        },
        {
          "internalType": "uint256",
          "name": "amount",
          "type": "uint256"
        }
      ],
      "name": "transfer",
      "outputs": [
        {
          "internalType": "bool",
          "name": "",
          "type": "bool"
        }
      ],
      "stateMutability": "nonpayable",
      "type": "function"
    },
    {
      "inputs": [
        {
          "internalType": "address",
          "name": "sender",
          "type": "address"
        },
        {
          "internalType": "address",
          "name": "recipient",
          "type": "address"
        },
        {
          "internalType": "uint256",
          "name": "amount",
          "type": "uint256"
        }
      ],
      "name": "transferFrom",
      "outputs": [
        {
          "internalType": "bool",
          "name": "",
          "type": "bool"
        }
      ],
      "stateMutability": "nonpayable",
      "type": "function"
    }
  ],
  "bytecode": "0x60806040526000196005553480156200001757600080fd5b5060405162000e1d38038062000e1d8339810160408190526200003a9162000311565b825183908390620000539060039060208501906200019e565b508051620000699060049060208401906200019e565b5050600680546001600160a81b031916600160a01b60ff8516026001600160a01b031916176001600160a01b03871617905550600554620000ac908590620000b6565b5050505062000419565b6001600160a01b038216620001115760405162461bcd60e51b815260206004820152601f60248201527f45524332303a206d696e7420746f20746865207a65726f206164647265737300604482015260640160405180910390fd5b8060026000828254620001259190620003b5565b90915550506001600160a01b0382166000908152602081905260408120805483929062000154908490620003b5565b90915550506040518181526001600160a01b038316906000907fddf252ad1be2c89b69c2b068fc378daa952ba7f163c4a11628f55a4df523b3ef9060200160405180910390a35050565b828054620001ac90620003dc565b90600052602060002090601f016020900481019282620001d057600085556200021b565b82601f10620001eb57805160ff19168380011785556200021b565b828001600101855582156200021b579182015b828111156200021b578251825591602001919060010190620001fe565b50620002299291506200022d565b5090565b5b808211156200022957600081556001016200022e565b634e487b7160e01b600052604160045260246000fd5b600082601f8301126200026c57600080fd5b81516001600160401b038082111562000289576200028962000244565b604051601f8301601f19908116603f01168101908282118183101715620002b457620002b462000244565b81604052838152602092508683858801011115620002d157600080fd5b600091505b83821015620002f55785820183015181830184015290820190620002d6565b83821115620003075760008385830101525b9695505050505050565b600080600080608085870312156200032857600080fd5b84516001600160a01b03811681146200034057600080fd5b60208601519094506001600160401b03808211156200035e57600080fd5b6200036c888389016200025a565b945060408701519150808211156200038357600080fd5b5062000392878288016200025a565b925050606085015160ff81168114620003aa57600080fd5b939692955090935050565b60008219821115620003d757634e487b7160e01b600052601160045260246000fd5b500190565b600181811c90821680620003f157607f821691505b602082108114156200041357634e487b7160e01b600052602260045260246000fd5b50919050565b6109f480620004296000396000f3fe608060405234801561001057600080fd5b50600436106100cf5760003560e01c80635fd130a91161008c578063a457c2d711610066578063a457c2d7146101b6578063a9059cbb146101c9578063cbf0a64e146101dc578063dd62ed3e1461020757600080fd5b80635fd130a91461017057806370a082311461018557806395d89b41146101ae57600080fd5b806306fdde03146100d4578063095ea7b3146100f257806318160ddd1461011557806323b872dd1461012b578063313ce5671461013e578063395093511461015d575b600080fd5b6100dc610240565b6040516100e99190610812565b60405180910390f35b610105610100366004610883565b6102d2565b60405190151581526020016100e9565b61011d6102e8565b6040519081526020016100e9565b6101056101393660046108ad565b610315565b600654600160a01b900460ff1660405160ff90911681526020016100e9565b61010561016b366004610883565b6103c4565b61018361017e3660046108e9565b610400565b005b61011d6101933660046108e9565b6001600160a01b031660009081526020819052604090205490565b6100dc61046a565b6101056101c4366004610883565b610479565b6101056101d7366004610883565b610512565b6006546101ef906001600160a01b031681565b6040516001600160a01b0390911681526020016100e9565b61011d61021536600461090b565b6001600160a01b03918216600090815260016020908152604080832093909416825291909152205490565b60606003805461024f9061093e565b80601f016020809104026020016040519081016040528092919081815260200182805461027b9061093e565b80156102c85780601f1061029d576101008083540402835291602001916102c8565b820191906000526020600020905b8154815290600101906020018083116102ab57829003601f168201915b5050505050905090565b60006102df33848461051f565b50600192915050565b6006546001600160a01b0316600090815260208190526040812054600554610310919061098f565b905090565b6000610322848484610643565b6001600160a01b0384166000908152600160209081526040808320338452909152902054828110156103ac5760405162461bcd60e51b815260206004820152602860248201527f45524332303a207472616e7366657220616d6f756e74206578636565647320616044820152676c6c6f77616e636560c01b60648201526084015b60405180910390fd5b6103b9853385840361051f565b506001949350505050565b3360008181526001602090815260408083206001600160a01b038716845290915281205490916102df9185906103fb9086906109a6565b61051f565b6006546001600160a01b031633146104485760405162461bcd60e51b815260206004820152600b60248201526a4e6f74206772617669747960a81b60448201526064016103a3565b600680546001600160a01b0319166001600160a01b0392909216919091179055565b60606004805461024f9061093e565b3360009081526001602090815260408083206001600160a01b0386168452909152812054828110156104fb5760405162461bcd60e51b815260206004820152602560248201527f45524332303a2064656372656173656420616c6c6f77616e63652062656c6f77604482015264207a65726f60d81b60648201526084016103a3565b610508338585840361051f565b5060019392505050565b60006102df338484610643565b6001600160a01b0383166105815760405162461bcd60e51b8152602060048201526024808201527f45524332303a20617070726f76652066726f6d20746865207a65726f206164646044820152637265737360e01b60648201526084016103a3565b6001600160a01b0382166105e25760405162461bcd60e51b815260206004820152602260248201527f45524332303a20617070726f766520746f20746865207a65726f206164647265604482015261737360f01b60648201526084016103a3565b6001600160a01b0383811660008181526001602090815260408083209487168084529482529182902085905590518481527f8c5be1e5ebec7d5bd14f71427d1e84f3dd0314c0f7b2291e5b200ac8c7c3b925910160405180910390a3505050565b6001600160a01b0383166106a75760405162461bcd60e51b815260206004820152602560248201527f45524332303a207472616e736665722066726f6d20746865207a65726f206164604482015264647265737360d81b60648201526084016103a3565b6001600160a01b0382166107095760405162461bcd60e51b815260206004820152602360248201527f45524332303a207472616e7366657220746f20746865207a65726f206164647260448201526265737360e81b60648201526084016103a3565b6001600160a01b038316600090815260208190526040902054818110156107815760405162461bcd60e51b815260206004820152602660248201527f45524332303a207472616e7366657220616d6f756e7420657863656564732062604482015265616c616e636560d01b60648201526084016103a3565b6001600160a01b038085166000908152602081905260408082208585039055918516815290812080548492906107b89084906109a6565b92505081905550826001600160a01b0316846001600160a01b03167fddf252ad1be2c89b69c2b068fc378daa952ba7f163c4a11628f55a4df523b3ef8460405161080491815260200190565b60405180910390a350505050565b600060208083528351808285015260005b8181101561083f57858101830151858201604001528201610823565b81811115610851576000604083870101525b50601f01601f1916929092016040019392505050565b80356001600160a01b038116811461087e57600080fd5b919050565b6000806040838503121561089657600080fd5b61089f83610867565b946020939093013593505050565b6000806000606084860312156108c257600080fd5b6108cb84610867565b92506108d960208501610867565b9150604084013590509250925092565b6000602082840312156108fb57600080fd5b61090482610867565b9392505050565b6000806040838503121561091e57600080fd5b61092783610867565b915061093560208401610867565b90509250929050565b600181811c9082168061095257607f821691505b6020821081141561097357634e487b7160e01b600052602260045260246000fd5b50919050565b634e487b7160e01b600052601160045260246000fd5b6000828210156109a1576109a1610979565b500390565b600082198211156109b9576109b9610979565b50019056fea264697066735822122044fbda136514976c8aa66ef460b2982d7c84985600570310e2b698b2b312e44d64736f6c634300080a0033",
  "linkReferences": {},
  "deployedLinkReferences": {}
}