{
  "_format": "hh-sol-artifact-1",
  "contractName": "CroBridge",
  "sourceName": "contracts/CroBridge.sol",
  "abi": [
    {
      "anonymous": false,
      "inputs": [
        {
          "indexed": false,
          "internalType": "address",
          "name": "sender",
          "type": "address"
        },
        {
          "indexed": false,
          "internalType": "string",
          "name": "recipient",
          "type": "string"
        },
        {
          "indexed": false,
          "internalType": "uint256",
          "name": "amount",
          "type": "uint256"
        }
      ],
      "name": "__CronosSendCroToIbc",
      "type": "event"
    },
    {
      "inputs": [
        {
          "internalType": "string",
          "name": "recipient",
          "type": "string"
        }
      ],
      "name": "send_cro_to_crypto_org",
      "outputs": [],
      "stateMutability": "payable",
      "type": "function"
    }
  ],
  "bytecode": "0x608060405234801561001057600080fd5b506101bf806100206000396000f3fe60806040526004361061001e5760003560e01c8063c41cc27014610023575b600080fd5b6100c96004803603602081101561003957600080fd5b81019060208101813564010000000081111561005457600080fd5b82018360208201111561006657600080fd5b8035906020019184600183028401116401000000008311171561008857600080fd5b91908080601f0160208091040260200160405190810160405280939291908181526020018383808284376000920191909152509295506100cb945050505050565b005b7ffbb552151d1a72b8da58707becbeaaf202cf9e83730579ce3184cf564f77285933823460405180846001600160a01b03166001600160a01b0316815260200180602001838152602001828103825284818151815260200191508051906020019080838360005b8381101561014a578181015183820152602001610132565b50505050905090810190601f1680156101775780820380516001836020036101000a031916815260200191505b5094505050505060405180910390a15056fea26469706673582212206f1333a4515faaa581ccb900caf3c1ca92b91f10c399fe1aa940a32dd2b3f6bf64736f6c63430006060033",
  "linkReferences": {},
  "deployedLinkReferences": {}
}