{
  "_format": "hh-sol-artifact-1",
  "contractName": "TestERC1155",
  "sourceName": "contracts/TestERC1155.sol",
  "abi": [
    {
      "inputs": [],
      "stateMutability": "nonpayable",
      "type": "constructor"
    },
    {
      "anonymous": false,
      "inputs": [
        {
          "indexed": true,
          "internalType": "address",
          "name": "account",
          "type": "address"
        },
        {
          "indexed": true,
          "internalType": "address",
          "name": "operator",
          "type": "address"
        },
        {
          "indexed": false,
          "internalType": "bool",
          "name": "approved",
          "type": "bool"
        }
      ],
      "name": "ApprovalForAll",
      "type": "event"
    },
    {
      "anonymous": false,
      "inputs": [
        {
          "indexed": true,
          "internalType": "address",
          "name": "operator",
          "type": "address"
        },
        {
          "indexed": true,
          "internalType": "address",
          "name": "from",
          "type": "address"
        },
        {
          "indexed": true,
          "internalType": "address",
          "name": "to",
          "type": "address"
        },
        {
          "indexed": false,
          "internalType": "uint256[]",
          "name": "ids",
          "type": "uint256[]"
        },
        {
          "indexed": false,
          "internalType": "uint256[]",
          "name": "values",
          "type": "uint256[]"
        }
      ],
      "name": "TransferBatch",
      "type": "event"
    },
    {
      "anonymous": false,
      "inputs": [
        {
          "indexed": true,
          "internalType": "address",
          "name": "operator",
          "type": "address"
        },
        {
          "indexed": true,
          "internalType": "address",
          "name": "from",
          "type": "address"
        },
        {
          "indexed": true,
          "internalType": "address",
          "name": "to",
          "type": "address"
        },
        {
          "indexed": false,
          "internalType": "uint256",
          "name": "id",
          "type": "uint256"
        },
        {
          "indexed": false,
          "internalType": "uint256",
          "name": "value",
          "type": "uint256"
        }
      ],
      "name": "TransferSingle",
      "type": "event"
    },
    {
      "anonymous": false,
      "inputs": [
        {
          "indexed": false,
          "internalType": "string",
          "name": "value",
          "type": "string"
        },
        {
          "indexed": true,
          "internalType": "uint256",
          "name": "id",
          "type": "uint256"
        }
      ],
      "name": "URI",
      "type": "event"
    },
    {
      "inputs": [],
      "name": "GOLD",
      "outputs": [
        {
          "internalType": "uint256",
          "name": "",
          "type": "uint256"
        }
      ],
      "stateMutability": "view",
      "type": "function"
    },
    {
      "inputs": [],
      "name": "SHIELD",
      "outputs": [
        {
          "internalType": "uint256",
          "name": "",
          "type": "uint256"
        }
      ],
      "stateMutability": "view",
      "type": "function"
    },
    {
      "inputs": [],
      "name": "SILVER",
      "outputs": [
        {
          "internalType": "uint256",
          "name": "",
          "type": "uint256"
        }
      ],
      "stateMutability": "view",
      "type": "function"
    },
    {
      "inputs": [],
      "name": "SWORD",
      "outputs": [
        {
          "internalType": "uint256",
          "name": "",
          "type": "uint256"
        }
      ],
      "stateMutability": "view",
      "type": "function"
    },
    {
      "inputs": [],
      "name": "THORS_HAMMER",
      "outputs": [
        {
          "internalType": "uint256",
          "name": "",
          "type": "uint256"
        }
      ],
      "stateMutability": "view",
      "type": "function"
    },
    {
      "inputs": [
        {
          "internalType": "address",
          "name": "account",
          "type": "address"
        },
        {
          "internalType": "uint256",
          "name": "id",
          "type": "uint256"
        }
      ],
      "name": "balanceOf",
      "outputs": [
        {
          "internalType": "uint256",
          "name": "",
          "type": "uint256"
        }
      ],
      "stateMutability": "view",
      "type": "function"
    },
    {
      "inputs": [
        {
          "internalType": "address[]",
          "name": "accounts",
          "type": "address[]"
        },
        {
          "internalType": "uint256[]",
          "name": "ids",
          "type": "uint256[]"
        }
      ],
      "name": "balanceOfBatch",
      "outputs": [
        {
          "internalType": "uint256[]",
          "name": "",
          "type": "uint256[]"
        }
      ],
      "stateMutability": "view",
      "type": "function"
    },
    {
      "inputs": [
        {
          "internalType": "address",
          "name": "account",
          "type": "address"
        },
        {
          "internalType": "address",
          "name": "operator",
          "type": "address"
        }
      ],
      "name": "isApprovedForAll",
      "outputs": [
        {
          "internalType": "bool",
          "name": "",
          "type": "bool"
        }
      ],
      "stateMutability": "view",
      "type": "function"
    },
    {
      "inputs": [
        {
          "internalType": "address",
          "name": "from",
          "type": "address"
        },
        {
          "internalType": "address",
          "name": "to",
          "type": "address"
        },
        {
          "internalType": "uint256[]",
          "name": "ids",
          "type": "uint256[]"
        },
        {
          "internalType": "uint256[]",
          "name": "amounts",
          "type": "uint256[]"
        },
        {
          "internalType": "bytes",
          "name": "data",
          "type": "bytes"
        }
      ],
      "name": "safeBatchTransferFrom",
      "outputs": [],
      "stateMutability": "nonpayable",
      "type": "function"
    },
    {
      "inputs": [
        {
          "internalType": "address",
          "name": "from",
          "type": "address"
        },
        {
          "internalType": "address",
          "name": "to",
          "type": "address"
        },
        {
          "internalType": "uint256",
          "name": "id",
          "type": "uint256"
        },
        {
          "internalType": "uint256",
          "name": "amount",
          "type": "uint256"
        },
        {
          "internalType": "bytes",
          "name": "data",
          "type": "bytes"
        }
      ],
      "name": "safeTransferFrom",
      "outputs": [],
      "stateMutability": "nonpayable",
      "type": "function"
    },
    {
      "inputs": [
        {
          "internalType": "address",
          "name": "operator",
          "type": "address"
        },
        {
          "internalType": "bool",
          "name": "approved",
          "type": "bool"
        }
      ],
      "name": "setApprovalForAll",
      "outputs": [],
      "stateMutability": "nonpayable",
      "type": "function"
    },
    {
      "inputs": [
        {
          "internalType": "bytes4",
          "name": "interfaceId",
          "type": "bytes4"
        }
      ],
      "name": "supportsInterface",
      "outputs": [
        {
          "internalType": "bool",
          "name": "",
          "type": "bool"
        }
      ],
      "stateMutability": "view",
      "type": "function"
    },
    {
      "inputs": [
        {
          "internalType": "uint256",
          "name": "",
          "type": "uint256"
        }
      ],
      "name": "uri",
      "outputs": [
        {
          "internalType": "string",
          "name": "",
          "type": "string"
        }
      ],
      "stateMutability": "view",
      "type": "function"
    }
  ],
  "bytecode": "0x60806040523480156200001157600080fd5b5060405180606001604052806027815260200162001ba56027913962000037816200010f565b5062000064336000670de0b6b3a7640000604051806020016040528060008152506200012860201b60201c565b620000943360016b033b2e3c9fd0803ce8000000604051806020016040528060008152506200012860201b60201c565b620000b93360026001604051806020016040528060008152506200012860201b60201c565b620000e1336003633b9aca00604051806020016040528060008152506200012860201b60201c565b62000109336004633b9aca00604051806020016040528060008152506200012860201b60201c565b62000760565b8051620001249060029060208401906200047a565b5050565b6001600160a01b0384166200018e5760405162461bcd60e51b815260206004820152602160248201527f455243313135353a206d696e7420746f20746865207a65726f206164647265736044820152607360f81b60648201526084015b60405180910390fd5b33620001b481600087620001a28862000248565b620001ad8862000248565b5050505050565b6000848152602081815260408083206001600160a01b038916845290915281208054859290620001e690849062000520565b909155505060408051858152602081018590526001600160a01b0380881692600092918516917fc3d58168c5ae7397731d063d5bbf3d657854427343f4c083240f7aacaa2d0f62910160405180910390a4620001ad816000878787876200029e565b6040805160018082528183019092526060916000919060208083019080368337019050509050828160008151811062000285576200028562000547565b602090810291909101015292915050565b505050505050565b620002bd846001600160a01b03166200047460201b620005cf1760201c565b15620002965760405163f23a6e6160e01b81526001600160a01b0385169063f23a6e6190620002f99089908990889088908890600401620005ad565b6020604051808303816000875af192505050801562000337575060408051601f3d908101601f191682019092526200033491810190620005f4565b60015b620003f8576200034662000627565b806308c379a014156200038757506200035e6200067f565b806200036b575062000389565b8060405162461bcd60e51b81526004016200018591906200070e565b505b60405162461bcd60e51b815260206004820152603460248201527f455243313135353a207472616e7366657220746f206e6f6e204552433131353560448201527f526563656976657220696d706c656d656e746572000000000000000000000000606482015260840162000185565b6001600160e01b0319811663f23a6e6160e01b146200046b5760405162461bcd60e51b815260206004820152602860248201527f455243313135353a204552433131353552656365697665722072656a656374656044820152676420746f6b656e7360c01b606482015260840162000185565b50505050505050565b3b151590565b828054620004889062000723565b90600052602060002090601f016020900481019282620004ac5760008555620004f7565b82601f10620004c757805160ff1916838001178555620004f7565b82800160010185558215620004f7579182015b82811115620004f7578251825591602001919060010190620004da565b506200050592915062000509565b5090565b5b808211156200050557600081556001016200050a565b600082198211156200054257634e487b7160e01b600052601160045260246000fd5b500190565b634e487b7160e01b600052603260045260246000fd5b6000815180845260005b81811015620005855760208185018101518683018201520162000567565b8181111562000598576000602083870101525b50601f01601f19169290920160200192915050565b6001600160a01b03868116825285166020820152604081018490526060810183905260a060808201819052600090620005e9908301846200055d565b979650505050505050565b6000602082840312156200060757600080fd5b81516001600160e01b0319811681146200062057600080fd5b9392505050565b600060033d1115620006415760046000803e5060005160e01c5b90565b601f8201601f191681016001600160401b03811182821017156200067857634e487b7160e01b600052604160045260246000fd5b6040525050565b600060443d10156200068e5790565b6040516003193d81016004833e81513d6001600160401b038083116024840183101715620006be57505050505090565b8285019150815181811115620006d75750505050505090565b843d8701016020828501011115620006f25750505050505090565b620007036020828601018762000644565b509095945050505050565b6020815260006200062060208301846200055d565b600181811c908216806200073857607f821691505b602082108114156200075a57634e487b7160e01b600052602260045260246000fd5b50919050565b61143580620007706000396000f3fe608060405234801561001057600080fd5b50600436106100ce5760003560e01c80634e1273f41161008c578063d562e20411610066578063d562e2041461019c578063e3e55f08146101a4578063e985e9c5146101ac578063f242432a146101e857600080fd5b80634e1273f4146101615780635b2725ed14610181578063a22cb4651461018957600080fd5b8062fdd58e146100d357806301ffc9a7146100f95780630e89341c1461011c57806313dc989f1461013c5780632eb2c2d6146101445780633e4bee3814610159575b600080fd5b6100e66100e1366004610c37565b6101fb565b6040519081526020015b60405180910390f35b61010c610107366004610c7a565b610292565b60405190151581526020016100f0565b61012f61012a366004610c9e565b6102e4565b6040516100f09190610d04565b6100e6600381565b610157610152366004610e63565b610378565b005b6100e6600081565b61017461016f366004610f0d565b61040f565b6040516100f09190611013565b6100e6600481565b610157610197366004611026565b610539565b6100e6600281565b6100e6600181565b61010c6101ba366004611062565b6001600160a01b03918216600090815260016020908152604080832093909416825291909152205460ff1690565b6101576101f6366004611095565b610548565b60006001600160a01b03831661026c5760405162461bcd60e51b815260206004820152602b60248201527f455243313135353a2062616c616e636520717565727920666f7220746865207a60448201526a65726f206164647265737360a81b60648201526084015b60405180910390fd5b506000908152602081815260408083206001600160a01b03949094168352929052205490565b60006001600160e01b03198216636cdb3d1360e11b14806102c357506001600160e01b031982166303a24d0760e21b145b806102de57506301ffc9a760e01b6001600160e01b03198316145b92915050565b6060600280546102f3906110fa565b80601f016020809104026020016040519081016040528092919081815260200182805461031f906110fa565b801561036c5780601f106103415761010080835404028352916020019161036c565b820191906000526020600020905b81548152906001019060200180831161034f57829003601f168201915b50505050509050919050565b6001600160a01b038516331480610394575061039485336101ba565b6103fb5760405162461bcd60e51b815260206004820152603260248201527f455243313135353a207472616e736665722063616c6c6572206973206e6f74206044820152711bdddb995c881b9bdc88185c1c1c9bdd995960721b6064820152608401610263565b61040885858585856105d5565b5050505050565b606081518351146104745760405162461bcd60e51b815260206004820152602960248201527f455243313135353a206163636f756e747320616e6420696473206c656e677468604482015268040dad2e6dac2e8c6d60bb1b6064820152608401610263565b6000835167ffffffffffffffff81111561049057610490610d17565b6040519080825280602002602001820160405280156104b9578160200160208202803683370190505b50905060005b8451811015610531576105048582815181106104dd576104dd611135565b60200260200101518583815181106104f7576104f7611135565b60200260200101516101fb565b82828151811061051657610516611135565b602090810291909101015261052a81611161565b90506104bf565b509392505050565b6105443383836107b2565b5050565b6001600160a01b038516331480610564575061056485336101ba565b6105c25760405162461bcd60e51b815260206004820152602960248201527f455243313135353a2063616c6c6572206973206e6f74206f776e6572206e6f7260448201526808185c1c1c9bdd995960ba1b6064820152608401610263565b6104088585858585610893565b3b151590565b81518351146106375760405162461bcd60e51b815260206004820152602860248201527f455243313135353a2069647320616e6420616d6f756e7473206c656e677468206044820152670dad2e6dac2e8c6d60c31b6064820152608401610263565b6001600160a01b03841661065d5760405162461bcd60e51b81526004016102639061117c565b3360005b845181101561074457600085828151811061067e5761067e611135565b60200260200101519050600085838151811061069c5761069c611135565b602090810291909101810151600084815280835260408082206001600160a01b038e1683529093529190912054909150818110156106ec5760405162461bcd60e51b8152600401610263906111c1565b6000838152602081815260408083206001600160a01b038e8116855292528083208585039055908b1682528120805484929061072990849061120b565b925050819055505050508061073d90611161565b9050610661565b50846001600160a01b0316866001600160a01b0316826001600160a01b03167f4a39dc06d4c0dbc64b70af90fd698a233a518aa5d07e595d983b8c0526c8f7fb8787604051610794929190611223565b60405180910390a46107aa8187878787876109b9565b505050505050565b816001600160a01b0316836001600160a01b031614156108265760405162461bcd60e51b815260206004820152602960248201527f455243313135353a2073657474696e6720617070726f76616c20737461747573604482015268103337b91039b2b63360b91b6064820152608401610263565b6001600160a01b03838116600081815260016020908152604080832094871680845294825291829020805460ff191686151590811790915591519182527f17307eab39ab6107e8899845ad3d59bd9653f200f220920489ca2b5937696c31910160405180910390a3505050565b6001600160a01b0384166108b95760405162461bcd60e51b81526004016102639061117c565b336108d28187876108c988610b15565b61040888610b15565b6000848152602081815260408083206001600160a01b038a168452909152902054838110156109135760405162461bcd60e51b8152600401610263906111c1565b6000858152602081815260408083206001600160a01b038b811685529252808320878503905590881682528120805486929061095090849061120b565b909155505060408051868152602081018690526001600160a01b03808916928a821692918616917fc3d58168c5ae7397731d063d5bbf3d657854427343f4c083240f7aacaa2d0f62910160405180910390a46109b0828888888888610b60565b50505050505050565b6001600160a01b0384163b156107aa5760405163bc197c8160e01b81526001600160a01b0385169063bc197c81906109fd9089908990889088908890600401611251565b6020604051808303816000875af1925050508015610a38575060408051601f3d908101601f19168201909252610a35918101906112af565b60015b610ae557610a446112cc565b806308c379a01415610a7e5750610a596112e8565b80610a645750610a80565b8060405162461bcd60e51b81526004016102639190610d04565b505b60405162461bcd60e51b815260206004820152603460248201527f455243313135353a207472616e7366657220746f206e6f6e20455243313135356044820152732932b1b2b4bb32b91034b6b83632b6b2b73a32b960611b6064820152608401610263565b6001600160e01b0319811663bc197c8160e01b146109b05760405162461bcd60e51b815260040161026390611372565b60408051600180825281830190925260609160009190602080830190803683370190505090508281600081518110610b4f57610b4f611135565b602090810291909101015292915050565b6001600160a01b0384163b156107aa5760405163f23a6e6160e01b81526001600160a01b0385169063f23a6e6190610ba490899089908890889088906004016113ba565b6020604051808303816000875af1925050508015610bdf575060408051601f3d908101601f19168201909252610bdc918101906112af565b60015b610beb57610a446112cc565b6001600160e01b0319811663f23a6e6160e01b146109b05760405162461bcd60e51b815260040161026390611372565b80356001600160a01b0381168114610c3257600080fd5b919050565b60008060408385031215610c4a57600080fd5b610c5383610c1b565b946020939093013593505050565b6001600160e01b031981168114610c7757600080fd5b50565b600060208284031215610c8c57600080fd5b8135610c9781610c61565b9392505050565b600060208284031215610cb057600080fd5b5035919050565b6000815180845260005b81811015610cdd57602081850181015186830182015201610cc1565b81811115610cef576000602083870101525b50601f01601f19169290920160200192915050565b602081526000610c976020830184610cb7565b634e487b7160e01b600052604160045260246000fd5b601f8201601f1916810167ffffffffffffffff81118282101715610d5357610d53610d17565b6040525050565b600067ffffffffffffffff821115610d7457610d74610d17565b5060051b60200190565b600082601f830112610d8f57600080fd5b81356020610d9c82610d5a565b604051610da98282610d2d565b83815260059390931b8501820192828101915086841115610dc957600080fd5b8286015b84811015610de45780358352918301918301610dcd565b509695505050505050565b600082601f830112610e0057600080fd5b813567ffffffffffffffff811115610e1a57610e1a610d17565b604051610e31601f8301601f191660200182610d2d565b818152846020838601011115610e4657600080fd5b816020850160208301376000918101602001919091529392505050565b600080600080600060a08688031215610e7b57600080fd5b610e8486610c1b565b9450610e9260208701610c1b565b9350604086013567ffffffffffffffff80821115610eaf57600080fd5b610ebb89838a01610d7e565b94506060880135915080821115610ed157600080fd5b610edd89838a01610d7e565b93506080880135915080821115610ef357600080fd5b50610f0088828901610def565b9150509295509295909350565b60008060408385031215610f2057600080fd5b823567ffffffffffffffff80821115610f3857600080fd5b818501915085601f830112610f4c57600080fd5b81356020610f5982610d5a565b604051610f668282610d2d565b83815260059390931b8501820192828101915089841115610f8657600080fd5b948201945b83861015610fab57610f9c86610c1b565b82529482019490820190610f8b565b96505086013592505080821115610fc157600080fd5b50610fce85828601610d7e565b9150509250929050565b600081518084526020808501945080840160005b8381101561100857815187529582019590820190600101610fec565b509495945050505050565b602081526000610c976020830184610fd8565b6000806040838503121561103957600080fd5b61104283610c1b565b91506020830135801515811461105757600080fd5b809150509250929050565b6000806040838503121561107557600080fd5b61107e83610c1b565b915061108c60208401610c1b565b90509250929050565b600080600080600060a086880312156110ad57600080fd5b6110b686610c1b565b94506110c460208701610c1b565b93506040860135925060608601359150608086013567ffffffffffffffff8111156110ee57600080fd5b610f0088828901610def565b600181811c9082168061110e57607f821691505b6020821081141561112f57634e487b7160e01b600052602260045260246000fd5b50919050565b634e487b7160e01b600052603260045260246000fd5b634e487b7160e01b600052601160045260246000fd5b60006000198214156111755761117561114b565b5060010190565b60208082526025908201527f455243313135353a207472616e7366657220746f20746865207a65726f206164604082015264647265737360d81b606082015260800190565b6020808252602a908201527f455243313135353a20696e73756666696369656e742062616c616e636520666f60408201526939103a3930b739b332b960b11b606082015260800190565b6000821982111561121e5761121e61114b565b500190565b6040815260006112366040830185610fd8565b82810360208401526112488185610fd8565b95945050505050565b6001600160a01b0386811682528516602082015260a06040820181905260009061127d90830186610fd8565b828103606084015261128f8186610fd8565b905082810360808401526112a38185610cb7565b98975050505050505050565b6000602082840312156112c157600080fd5b8151610c9781610c61565b600060033d11156112e55760046000803e5060005160e01c5b90565b600060443d10156112f65790565b6040516003193d81016004833e81513d67ffffffffffffffff816024840111818411171561132657505050505090565b828501915081518181111561133e5750505050505090565b843d87010160208285010111156113585750505050505090565b61136760208286010187610d2d565b509095945050505050565b60208082526028908201527f455243313135353a204552433131353552656365697665722072656a656374656040820152676420746f6b656e7360c01b606082015260800190565b6001600160a01b03868116825285166020820152604081018490526060810183905260a0608082018190526000906113f490830184610cb7565b97965050505050505056fea264697066735822122011fca47d2e138ca0502b8b96507089b1c1426436de1b2ee23f5e5251fc8d029364736f6c634300080a003368747470733a2f2f67616d652e6578616d706c652f6170692f6974656d2f7b69647d2e6a736f6e",
  "linkReferences": {},
  "deployedLinkReferences": {}
}