{
  "_format": "hh-sol-artifact-1",
  "contractName": "TestRevert",
  "sourceName": "contracts/TestRevert.sol",
  "abi": [
    {
      "inputs": [],
      "stateMutability": "nonpayable",
      "type": "constructor"
    },
    {
      "inputs": [],
      "name": "query",
      "outputs": [
        {
          "internalType": "uint256",
          "name": "",
          "type": "uint256"
        }
      ],
      "stateMutability": "view",
      "type": "function"
    },
    {
      "inputs": [
        {
          "internalType": "uint256",
          "name": "value",
          "type": "uint256"
        }
      ],
      "name": "transfer",
      "outputs": [],
      "stateMutability": "payable",
      "type": "function"
    }
  ],
  "bytecode": "0x608060405234801561001057600080fd5b506000805561010d806100246000396000f3fe60806040526004361060265760003560e01c806312514bba14602b5780632c46b205146047575b600080fd5b604560048036036020811015603f57600080fd5b5035606b565b005b348015605257600080fd5b50605960d1565b60408051918252519081900360200190f35b6000819055674563918244f400008082101560cd576040805162461bcd60e51b815260206004820152601d60248201527f4e6f7420656e6f75676820746f6b656e7320746f207472616e73666572000000604482015290519081900360640190fd5b5050565b6000549056fea2646970667358221220d8a2962a68161a87cadf76fbad92abd00f2b2fda7fda3c5e79cd9231a2ea7efb64736f6c63430006060033",
  "linkReferences": {},
  "deployedLinkReferences": {}
}