{
  "_format": "hh-sol-artifact-1",
  "contractName": "TestERC20Utility",
  "sourceName": "contracts/TestERC20Utility.sol",
  "abi": [
    {
      "inputs": [],
      "stateMutability": "nonpayable",
      "type": "constructor"
    },
    {
      "anonymous": false,
      "inputs": [
        {
          "indexed": true,
          "internalType": "address",
          "name": "owner",
          "type": "address"
        },
        {
          "indexed": true,
          "internalType": "address",
          "name": "spender",
          "type": "address"
        },
        {
          "indexed": false,
          "internalType": "uint256",
          "name": "value",
          "type": "uint256"
        }
      ],
      "name": "Approval",
      "type": "event"
    },
    {
      "anonymous": false,
      "inputs": [
        {
          "indexed": true,
          "internalType": "address",
          "name": "from",
          "type": "address"
        },
        {
          "indexed": true,
          "internalType": "address",
          "name": "to",
          "type": "address"
        },
        {
          "indexed": false,
          "internalType": "uint256",
          "name": "value",
          "type": "uint256"
        }
      ],
      "name": "Transfer",
      "type": "event"
    },
    {
      "anonymous": false,
      "inputs": [
        {
          "indexed": false,
          "internalType": "address",
          "name": "recipient",
          "type": "address"
        },
        {
          "indexed": false,
          "internalType": "uint256",
          "name": "amount",
          "type": "uint256"
        }
      ],
      "name": "__CronosSendToAccount",
      "type": "event"
    },
    {
      "anonymous": false,
      "inputs": [
        {
          "indexed": false,
          "internalType": "address",
          "name": "recipient",
          "type": "address"
        },
        {
          "indexed": false,
          "internalType": "uint256",
          "name": "amount",
          "type": "uint256"
        },
        {
          "indexed": false,
          "internalType": "uint256",
          "name": "bridge_fee",
          "type": "uint256"
        }
      ],
      "name": "__CronosSendToEthereum",
      "type": "event"
    },
    {
      "inputs": [
        {
          "internalType": "address",
          "name": "owner",
          "type": "address"
        },
        {
          "internalType": "address",
          "name": "spender",
          "type": "address"
        }
      ],
      "name": "allowance",
      "outputs": [
        {
          "internalType": "uint256",
          "name": "",
          "type": "uint256"
        }
      ],
      "stateMutability": "view",
      "type": "function"
    },
    {
      "inputs": [
        {
          "internalType": "address",
          "name": "spender",
          "type": "address"
        },
        {
          "internalType": "uint256",
          "name": "amount",
          "type": "uint256"
        }
      ],
      "name": "approve",
      "outputs": [
        {
          "internalType": "bool",
          "name": "",
          "type": "bool"
        }
      ],
      "stateMutability": "nonpayable",
      "type": "function"
    },
    {
      "inputs": [
        {
          "internalType": "address",
          "name": "account",
          "type": "address"
        }
      ],
      "name": "balanceOf",
      "outputs": [
        {
          "internalType": "uint256",
          "name": "",
          "type": "uint256"
        }
      ],
      "stateMutability": "view",
      "type": "function"
    },
    {
      "inputs": [],
      "name": "decimals",
      "outputs": [
        {
          "internalType": "uint8",
          "name": "",
          "type": "uint8"
        }
      ],
      "stateMutability": "view",
      "type": "function"
    },
    {
      "inputs": [
        {
          "internalType": "address",
          "name": "spender",
          "type": "address"
        },
        {
          "internalType": "uint256",
          "name": "subtractedValue",
          "type": "uint256"
        }
      ],
      "name": "decreaseAllowance",
      "outputs": [
        {
          "internalType": "bool",
          "name": "",
          "type": "bool"
        }
      ],
      "stateMutability": "nonpayable",
      "type": "function"
    },
    {
      "inputs": [],
      "name": "fancy",
      "outputs": [
        {
          "internalType": "uint256",
          "name": "",
          "type": "uint256"
        }
      ],
      "stateMutability": "view",
      "type": "function"
    },
    {
      "inputs": [
        {
          "internalType": "address",
          "name": "spender",
          "type": "address"
        },
        {
          "internalType": "uint256",
          "name": "addedValue",
          "type": "uint256"
        }
      ],
      "name": "increaseAllowance",
      "outputs": [
        {
          "internalType": "bool",
          "name": "",
          "type": "bool"
        }
      ],
      "stateMutability": "nonpayable",
      "type": "function"
    },
    {
      "inputs": [
        {
          "internalType": "address",
          "name": "addr",
          "type": "address"
        },
        {
          "internalType": "uint256",
          "name": "amount",
          "type": "uint256"
        }
      ],
      "name": "mint_by_cronos_module",
      "outputs": [],
      "stateMutability": "nonpayable",
      "type": "function"
    },
    {
      "inputs": [],
      "name": "name",
      "outputs": [
        {
          "internalType": "string",
          "name": "",
          "type": "string"
        }
      ],
      "stateMutability": "view",
      "type": "function"
    },
    {
      "inputs": [
        {
          "internalType": "address",
          "name": "recipient",
          "type": "address"
        },
        {
          "internalType": "uint256",
          "name": "amount",
          "type": "uint256"
        },
        {
          "internalType": "uint256",
          "name": "bridge_fee",
          "type": "uint256"
        }
      ],
      "name": "send_to_ethereum",
      "outputs": [],
      "stateMutability": "nonpayable",
      "type": "function"
    },
    {
      "inputs": [],
      "name": "symbol",
      "outputs": [
        {
          "internalType": "string",
          "name": "",
          "type": "string"
        }
      ],
      "stateMutability": "view",
      "type": "function"
    },
    {
      "inputs": [],
      "name": "test_log0",
      "outputs": [],
      "stateMutability": "nonpayable",
      "type": "function"
    },
    {
      "inputs": [],
      "name": "totalSupply",
      "outputs": [
        {
          "internalType": "uint256",
          "name": "",
          "type": "uint256"
        }
      ],
      "stateMutability": "view",
      "type": "function"
    },
    {
      "inputs": [
        {
          "internalType": "address",
          "name": "recipient",
          "type": "address"
        },
        {
          "internalType": "uint256",
          "name": "amount",
          "type": "uint256"
        }
      ],
      "name": "transfer",
      "outputs": [
        {
          "internalType": "bool",
          "name": "",
          "type": "bool"
        }
      ],
      "stateMutability": "nonpayable",
      "type": "function"
    },
    {
      "inputs": [
        {
          "internalType": "address",
          "name": "sender",
          "type": "address"
        },
        {
          "internalType": "address",
          "name": "recipient",
          "type": "address"
        },
        {
          "internalType": "uint256",
          "name": "amount",
          "type": "uint256"
        }
      ],
      "name": "transferFrom",
      "outputs": [
        {
          "internalType": "bool",
          "name": "",
          "type": "bool"
        }
      ],
      "stateMutability": "nonpayable",
      "type": "function"
    }
  ],
  "bytecode": "0x60806040523480156200001157600080fd5b506040518060400160405280600581526020016446616e637960d81b81525060405180604001604052806003815260200162464e5960e81b81525081600390805190602001906200006492919062000188565b5080516200007a90600490602084019062000188565b5050506200009a336a52b7d2dcc80cd2e4000000620000a060201b60201c565b62000292565b6001600160a01b038216620000fb5760405162461bcd60e51b815260206004820152601f60248201527f45524332303a206d696e7420746f20746865207a65726f206164647265737300604482015260640160405180910390fd5b80600260008282546200010f91906200022e565b90915550506001600160a01b038216600090815260208190526040812080548392906200013e9084906200022e565b90915550506040518181526001600160a01b038316906000907fddf252ad1be2c89b69c2b068fc378daa952ba7f163c4a11628f55a4df523b3ef9060200160405180910390a35050565b828054620001969062000255565b90600052602060002090601f016020900481019282620001ba576000855562000205565b82601f10620001d557805160ff191683800117855562000205565b8280016001018555821562000205579182015b8281111562000205578251825591602001919060010190620001e8565b506200021392915062000217565b5090565b5b8082111562000213576000815560010162000218565b600082198211156200025057634e487b7160e01b600052601160045260246000fd5b500190565b600181811c908216806200026a57607f821691505b602082108114156200028c57634e487b7160e01b600052602260045260246000fd5b50919050565b610cbb80620002a26000396000f3fe608060405234801561001057600080fd5b50600436106100f55760003560e01c80637e497d8011610097578063d3d78b9b11610066578063d3d78b9b146101e3578063dd62ed3e146101f6578063e6711ef61461022f578063e97820641461023657600080fd5b80637e497d80146101ab57806395d89b41146101b5578063a457c2d7146101bd578063a9059cbb146101d057600080fd5b806323b872dd116100d357806323b872dd1461014d578063313ce56714610160578063395093511461016f57806370a082311461018257600080fd5b806306fdde03146100fa578063095ea7b31461011857806318160ddd1461013b575b600080fd5b610102610249565b60405161010f9190610aa6565b60405180910390f35b61012b610126366004610b17565b6102db565b604051901515815260200161010f565b6002545b60405190815260200161010f565b61012b61015b366004610b41565b6102f1565b6040516012815260200161010f565b61012b61017d366004610b17565b6103a0565b61013f610190366004610b7d565b6001600160a01b031660009081526020819052604090205490565b6101b36103dc565b005b6101026103f9565b61012b6101cb366004610b17565b610408565b61012b6101de366004610b17565b6104a1565b6101b36101f1366004610b9f565b6104ae565b61013f610204366004610bd2565b6001600160a01b03918216600090815260016020908152604080832093909416825291909152205490565b602a61013f565b6101b3610244366004610b17565b61055f565b60606003805461025890610c05565b80601f016020809104026020016040519081016040528092919081815260200182805461028490610c05565b80156102d15780601f106102a6576101008083540402835291602001916102d1565b820191906000526020600020905b8154815290600101906020018083116102b457829003601f168201915b5050505050905090565b60006102e833848461058d565b50600192915050565b60006102fe8484846106b2565b6001600160a01b0384166000908152600160209081526040808320338452909152902054828110156103885760405162461bcd60e51b815260206004820152602860248201527f45524332303a207472616e7366657220616d6f756e74206578636565647320616044820152676c6c6f77616e636560c01b60648201526084015b60405180910390fd5b610395853385840361058d565b506001949350505050565b3360008181526001602090815260408083206001600160a01b038716845290915281205490916102e89185906103d7908690610c56565b61058d565b602080516a1a195b1b1bc81ddbdc9b1960aa1b8082529181a05050565b60606004805461025890610c05565b3360009081526001602090815260408083206001600160a01b03861684529091528120548281101561048a5760405162461bcd60e51b815260206004820152602560248201527f45524332303a2064656372656173656420616c6c6f77616e63652062656c6f77604482015264207a65726f60d81b606482015260840161037f565b610497338585840361058d565b5060019392505050565b60006102e83384846106b2565b60006104ba8284610c56565b9050828110156105055760405162461bcd60e51b8152602060048201526016602482015275736166652d6d6174682d6164642d6f766572666c6f7760501b604482015260640161037f565b61050f3382610881565b604080516001600160a01b0386168152602081018590529081018390527f937492d2511a2fbc9b51ea08825f1e252247d339dfd50904ebf4f4411f1d81369060600160405180910390a150505050565b337389a7ef2f08b1c018d5cc88836249b84dd53929051461057f57600080fd5b61058982826109c7565b5050565b6001600160a01b0383166105ef5760405162461bcd60e51b8152602060048201526024808201527f45524332303a20617070726f76652066726f6d20746865207a65726f206164646044820152637265737360e01b606482015260840161037f565b6001600160a01b0382166106505760405162461bcd60e51b815260206004820152602260248201527f45524332303a20617070726f766520746f20746865207a65726f206164647265604482015261737360f01b606482015260840161037f565b6001600160a01b0383811660008181526001602090815260408083209487168084529482529182902085905590518481527f8c5be1e5ebec7d5bd14f71427d1e84f3dd0314c0f7b2291e5b200ac8c7c3b92591015b60405180910390a3505050565b6001600160a01b0383166107165760405162461bcd60e51b815260206004820152602560248201527f45524332303a207472616e736665722066726f6d20746865207a65726f206164604482015264647265737360d81b606482015260840161037f565b6001600160a01b0382166107785760405162461bcd60e51b815260206004820152602360248201527f45524332303a207472616e7366657220746f20746865207a65726f206164647260448201526265737360e81b606482015260840161037f565b6001600160a01b038316600090815260208190526040902054818110156107f05760405162461bcd60e51b815260206004820152602660248201527f45524332303a207472616e7366657220616d6f756e7420657863656564732062604482015265616c616e636560d01b606482015260840161037f565b6001600160a01b03808516600090815260208190526040808220858503905591851681529081208054849290610827908490610c56565b92505081905550826001600160a01b0316846001600160a01b03167fddf252ad1be2c89b69c2b068fc378daa952ba7f163c4a11628f55a4df523b3ef8460405161087391815260200190565b60405180910390a350505050565b6001600160a01b0382166108e15760405162461bcd60e51b815260206004820152602160248201527f45524332303a206275726e2066726f6d20746865207a65726f206164647265736044820152607360f81b606482015260840161037f565b6001600160a01b038216600090815260208190526040902054818110156109555760405162461bcd60e51b815260206004820152602260248201527f45524332303a206275726e20616d6f756e7420657863656564732062616c616e604482015261636560f01b606482015260840161037f565b6001600160a01b0383166000908152602081905260408120838303905560028054849290610984908490610c6e565b90915550506040518281526000906001600160a01b038516907fddf252ad1be2c89b69c2b068fc378daa952ba7f163c4a11628f55a4df523b3ef906020016106a5565b6001600160a01b038216610a1d5760405162461bcd60e51b815260206004820152601f60248201527f45524332303a206d696e7420746f20746865207a65726f206164647265737300604482015260640161037f565b8060026000828254610a2f9190610c56565b90915550506001600160a01b03821660009081526020819052604081208054839290610a5c908490610c56565b90915550506040518181526001600160a01b038316906000907fddf252ad1be2c89b69c2b068fc378daa952ba7f163c4a11628f55a4df523b3ef9060200160405180910390a35050565b600060208083528351808285015260005b81811015610ad357858101830151858201604001528201610ab7565b81811115610ae5576000604083870101525b50601f01601f1916929092016040019392505050565b80356001600160a01b0381168114610b1257600080fd5b919050565b60008060408385031215610b2a57600080fd5b610b3383610afb565b946020939093013593505050565b600080600060608486031215610b5657600080fd5b610b5f84610afb565b9250610b6d60208501610afb565b9150604084013590509250925092565b600060208284031215610b8f57600080fd5b610b9882610afb565b9392505050565b600080600060608486031215610bb457600080fd5b610bbd84610afb565b95602085013595506040909401359392505050565b60008060408385031215610be557600080fd5b610bee83610afb565b9150610bfc60208401610afb565b90509250929050565b600181811c90821680610c1957607f821691505b60208210811415610c3a57634e487b7160e01b600052602260045260246000fd5b50919050565b634e487b7160e01b600052601160045260246000fd5b60008219821115610c6957610c69610c40565b500190565b600082821015610c8057610c80610c40565b50039056fea26469706673582212207ab80fa2a4da9e487458c06fe8dbe066dd4a5bd823297a32c4fc7af9f5229b8b64736f6c634300080a0033",
  "linkReferences": {},
  "deployedLinkReferences": {}
}