{
  "_format": "hh-sol-artifact-1",
  "contractName": "Destroyer",
  "sourceName": "contracts/TestSuicide.sol",
  "abi": [
    {
      "inputs": [
        {
          "internalType": "contract Destroyee",
          "name": "destroyee",
          "type": "address"
        }
      ],
      "name": "check_codesize_after_suicide",
      "outputs": [],
      "stateMutability": "nonpayable",
      "type": "function"
    }
  ],
  "bytecode": "0x608060405234801561001057600080fd5b5060ef8061001f6000396000f3fe6080604052348015600f57600080fd5b506004361060285760003560e01c8063bb87529f14602d575b600080fd5b605060048036036020811015604157600080fd5b50356001600160a01b03166052565b005b6000819050816001600160a01b03166383197ef06040518163ffffffff1660e01b8152600401600060405180830381600087803b158015609157600080fd5b505af115801560a4573d6000803e3d6000fd5b5050823b9150508060b457600080fd5b50505056fea2646970667358221220200b5a9e159449aa13038fbe68d335975823aa9c1b92771097cbf07b29b2a62964736f6c63430006060033",
  "linkReferences": {},
  "deployedLinkReferences": {}
}